{
  "_format": "hh-sol-artifact-1",
  "contractName": "Example",
  "sourceName": "contracts/Example.sol",
  "abi": [
    {
      "inputs": [],
      "stateMutability": "nonpayable",
      "type": "constructor"
    },
    {
      "inputs": [
        {
          "internalType": "uint256",
          "name": "amount",
          "type": "uint256"
        }
      ],
      "name": "addAmount",
      "outputs": [
        {
          "internalType": "bool",
          "name": "",
          "type": "bool"
        }
      ],
      "stateMutability": "nonpayable",
      "type": "function"
    },
    {
      "inputs": [],
      "name": "count",
      "outputs": [
        {
          "internalType": "uint256",
          "name": "",
          "type": "uint256"
        }
      ],
      "stateMutability": "view",
      "type": "function"
    }
  ],
  "bytecode": "0x608060405234801561001057600080fd5b5060008081905550610228806100276000396000f3fe608060405234801561001057600080fd5b50600436106100365760003560e01c806306661abd1461003b5780630912f23214610059575b600080fd5b610043610089565b6040516100509190610125565b60405180910390f35b610073600480360381019061006e91906100c3565b61008f565b604051610080919061010a565b60405180910390f35b60005481565b60008160005461009f9190610140565b60008190555060019050919050565b6000813590506100bd816101db565b92915050565b6000602082840312156100d557600080fd5b60006100e3848285016100ae565b91505092915050565b6100f581610196565b82525050565b610104816101a2565b82525050565b600060208201905061011f60008301846100ec565b92915050565b600060208201905061013a60008301846100fb565b92915050565b600061014b826101a2565b9150610156836101a2565b9250827fffffffffffffffffffffffffffffffffffffffffffffffffffffffffffffffff0382111561018b5761018a6101ac565b5b828201905092915050565b60008115159050919050565b6000819050919050565b7f4e487b7100000000000000000000000000000000000000000000000000000000600052601160045260246000fd5b6101e4816101a2565b81146101ef57600080fd5b5056fea26469706673582212204d13fdcda7c880d6f7e03f86ae0b019e9e7feb3b0a96a2ff7ac6cf184f29fce964736f6c63430008030033",
  "linkReferences": {},
  "deployedLinkReferences": {}
}