{
  "_format": "hh-sol-artifact-1",
  "contractName": "BouncerProxy",
  "sourceName": "contracts/BouncerProxy.sol",
  "abi": [
    {
      "inputs": [],
      "stateMutability": "nonpayable",
      "type": "constructor"
    },
    {
      "anonymous": false,
      "inputs": [
        {
          "indexed": false,
          "internalType": "bytes",
          "name": "sig",
          "type": "bytes"
        },
        {
          "indexed": false,
          "internalType": "address",
          "name": "signer",
          "type": "address"
        },
        {
          "indexed": false,
          "internalType": "address",
          "name": "destination",
          "type": "address"
        },
        {
          "indexed": false,
          "internalType": "uint256",
          "name": "value",
          "type": "uint256"
        },
        {
          "indexed": false,
          "internalType": "bytes",
          "name": "data",
          "type": "bytes"
        },
        {
          "indexed": false,
          "internalType": "address",
          "name": "rewardToken",
          "type": "address"
        },
        {
          "indexed": false,
          "internalType": "uint256",
          "name": "rewardAmount",
          "type": "uint256"
        },
        {
          "indexed": false,
          "internalType": "bytes32",
          "name": "_hash",
          "type": "bytes32"
        }
      ],
      "name": "Forwarded",
      "type": "event"
    },
    {
      "anonymous": false,
      "inputs": [
        {
          "indexed": false,
          "internalType": "address",
          "name": "_account",
          "type": "address"
        },
        {
          "indexed": false,
          "internalType": "bool",
          "name": "_value",
          "type": "bool"
        }
      ],
      "name": "UpdateWhitelist",
      "type": "event"
    },
    {
      "inputs": [
        {
          "internalType": "bytes",
          "name": "sig",
          "type": "bytes"
        },
        {
          "internalType": "address",
          "name": "signer",
          "type": "address"
        },
        {
          "internalType": "address",
          "name": "destination",
          "type": "address"
        },
        {
          "internalType": "uint256",
          "name": "value",
          "type": "uint256"
        },
        {
          "internalType": "bytes",
          "name": "data",
          "type": "bytes"
        },
        {
          "internalType": "address",
          "name": "rewardToken",
          "type": "address"
        },
        {
          "internalType": "uint256",
          "name": "rewardAmount",
          "type": "uint256"
        }
      ],
      "name": "forward",
      "outputs": [],
      "stateMutability": "nonpayable",
      "type": "function"
    },
    {
      "inputs": [
        {
          "internalType": "address",
          "name": "signer",
          "type": "address"
        },
        {
          "internalType": "address",
          "name": "destination",
          "type": "address"
        },
        {
          "internalType": "uint256",
          "name": "value",
          "type": "uint256"
        },
        {
          "internalType": "bytes",
          "name": "data",
          "type": "bytes"
        },
        {
          "internalType": "address",
          "name": "rewardToken",
          "type": "address"
        },
        {
          "internalType": "uint256",
          "name": "rewardAmount",
          "type": "uint256"
        }
      ],
      "name": "getHash",
      "outputs": [
        {
          "internalType": "bytes32",
          "name": "",
          "type": "bytes32"
        }
      ],
      "stateMutability": "view",
      "type": "function"
    },
    {
      "inputs": [
        {
          "internalType": "address",
          "name": "",
          "type": "address"
        }
      ],
      "name": "nonce",
      "outputs": [
        {
          "internalType": "uint256",
          "name": "",
          "type": "uint256"
        }
      ],
      "stateMutability": "view",
      "type": "function"
    },
    {
      "inputs": [
        {
          "internalType": "address",
          "name": "_account",
          "type": "address"
        },
        {
          "internalType": "bool",
          "name": "_value",
          "type": "bool"
        }
      ],
      "name": "updateWhitelist",
      "outputs": [
        {
          "internalType": "bool",
          "name": "",
          "type": "bool"
        }
      ],
      "stateMutability": "nonpayable",
      "type": "function"
    },
    {
      "inputs": [
        {
          "internalType": "address",
          "name": "",
          "type": "address"
        }
      ],
      "name": "whitelist",
      "outputs": [
        {
          "internalType": "bool",
          "name": "",
          "type": "bool"
        }
      ],
      "stateMutability": "view",
      "type": "function"
    }
  ],
  "bytecode": "0x608060405234801561001057600080fd5b5060018060003373ffffffffffffffffffffffffffffffffffffffff1673ffffffffffffffffffffffffffffffffffffffff16815260200190815260200160002060006101000a81548160ff021916908315150217905550610f41806100776000396000f3fe608060405234801561001057600080fd5b50600436106100575760003560e01c80630d392cd91461005c5780630ee02d9d1461008c578063622f9730146100bc57806370ae92d2146100d85780639b19251a14610108575b600080fd5b610076600480360381019061007191906106fe565b610138565b6040516100839190610aeb565b60405180910390f35b6100a660048036038101906100a1919061065d565b610260565b6040516100b39190610b06565b60405180910390f35b6100d660048036038101906100d1919061073a565b6102e1565b005b6100f260048036038101906100ed9190610634565b6103f3565b6040516100ff9190610c32565b60405180910390f35b610122600480360381019061011d9190610634565b61040b565b60405161012f9190610aeb565b60405180910390f35b6000600160003373ffffffffffffffffffffffffffffffffffffffff1673ffffffffffffffffffffffffffffffffffffffff16815260200190815260200160002060009054906101000a900460ff166101c6576040517f08c379a00000000000000000000000000000000000000000000000000000000081526004016101bd90610c12565b60405180910390fd5b81600160008573ffffffffffffffffffffffffffffffffffffffff1673ffffffffffffffffffffffffffffffffffffffff16815260200190815260200160002060006101000a81548160ff0219169083151502179055507f08b2c0469ecd1d7a21d7e1492f0fc75fc7e8e0fa4fdf4275949c90875f5ebdf5838360405161024e929190610ac2565b60405180910390a16001905092915050565b6000308787878787876000808f73ffffffffffffffffffffffffffffffffffffffff1673ffffffffffffffffffffffffffffffffffffffff168152602001908152602001600020546040516020016102bf989796959493929190610a0e565b6040516020818303038152906040528051906020012090509695505050505050565b60006102f1878787878787610260565b90506000808873ffffffffffffffffffffffffffffffffffffffff1673ffffffffffffffffffffffffffffffffffffffff168152602001908152602001600020600081548092919061034290610dc9565b9190505550610351818961042b565b610390576040517f08c379a000000000000000000000000000000000000000000000000000000000815260040161038790610bf2565b60405180910390fd5b61039b868686610570565b6103a457600080fd5b7f6d4a868d9686051f889f61dc96415c0809f248cd6ce33eb543ff445b972084fe88888888888888886040516103e1989796959493929190610b66565b60405180910390a15050505050505050565b60006020528060005260406000206000915090505481565b60016020528060005260406000206000915054906101000a900460ff1681565b6000806000806041855114610446576000935050505061056a565b6020850151925060408501519150606085015160001a9050601b8160ff16101561047a57601b816104779190610cf1565b90505b601b8160ff16141580156104925750601c8160ff1614155b156104a3576000935050505061056a565b600160006001886040516020016104ba9190610a9c565b60405160208183030381529060405280519060200120848787604051600081526020016040526040516104f09493929190610b21565b6020604051602081039080840390855afa158015610512573d6000803e3d6000fd5b5050506020604051035173ffffffffffffffffffffffffffffffffffffffff1673ffffffffffffffffffffffffffffffffffffffff16815260200190815260200160002060009054906101000a900460ff1693505050505b92915050565b6000806000835160208501868864174876e800f190509392505050565b60006105a061059b84610c7e565b610c4d565b9050828152602081018484840111156105b857600080fd5b6105c3848285610d87565b509392505050565b6000813590506105da81610ec6565b92915050565b6000813590506105ef81610edd565b92915050565b600082601f83011261060657600080fd5b813561061684826020860161058d565b91505092915050565b60008135905061062e81610ef4565b92915050565b60006020828403121561064657600080fd5b6000610654848285016105cb565b91505092915050565b60008060008060008060c0878903121561067657600080fd5b600061068489828a016105cb565b965050602061069589828a016105cb565b95505060406106a689828a0161061f565b945050606087013567ffffffffffffffff8111156106c357600080fd5b6106cf89828a016105f5565b93505060806106e089828a016105cb565b92505060a06106f189828a0161061f565b9150509295509295509295565b6000806040838503121561071157600080fd5b600061071f858286016105cb565b9250506020610730858286016105e0565b9150509250929050565b600080600080600080600060e0888a03121561075557600080fd5b600088013567ffffffffffffffff81111561076f57600080fd5b61077b8a828b016105f5565b975050602061078c8a828b016105cb565b965050604061079d8a828b016105cb565b95505060606107ae8a828b0161061f565b945050608088013567ffffffffffffffff8111156107cb57600080fd5b6107d78a828b016105f5565b93505060a06107e88a828b016105cb565b92505060c06107f98a828b0161061f565b91505092959891949750929550565b61081181610d28565b82525050565b61082861082382610d28565b610e12565b82525050565b61083781610d3a565b82525050565b61084681610d46565b82525050565b61085d61085882610d46565b610e24565b82525050565b600061086e82610cae565b6108788185610cb9565b9350610888818560208601610d96565b61089181610ea8565b840191505092915050565b60006108a782610cae565b6108b18185610cca565b93506108c1818560208601610d96565b80840191505092915050565b60006108da601c83610ce6565b91507f19457468657265756d205369676e6564204d6573736167653a0a3332000000006000830152601c82019050919050565b600061091a602f83610cd5565b91507f426f756e63657250726f78793a3a666f7277617264205369676e65722069732060008301527f6e6f742077686974656c697374656400000000000000000000000000000000006020830152604082019050919050565b6000610980603583610cd5565b91507f426f756e63657250726f78793a3a75706461746557686974656c69737420416360008301527f636f756e74204e6f742057686974656c697374656400000000000000000000006020830152604082019050919050565b6109e281610d70565b82525050565b6109f96109f482610d70565b610e40565b82525050565b610a0881610d7a565b82525050565b6000610a1a828b610817565b601482019150610a2a828a610817565b601482019150610a3a8289610817565b601482019150610a4a82886109e8565b602082019150610a5a828761089c565b9150610a668286610817565b601482019150610a7682856109e8565b602082019150610a8682846109e8565b6020820191508190509998505050505050505050565b6000610aa7826108cd565b9150610ab3828461084c565b60208201915081905092915050565b6000604082019050610ad76000830185610808565b610ae4602083018461082e565b9392505050565b6000602082019050610b00600083018461082e565b92915050565b6000602082019050610b1b600083018461083d565b92915050565b6000608082019050610b36600083018761083d565b610b4360208301866109ff565b610b50604083018561083d565b610b5d606083018461083d565b95945050505050565b6000610100820190508181036000830152610b81818b610863565b9050610b90602083018a610808565b610b9d6040830189610808565b610baa60608301886109d9565b8181036080830152610bbc8187610863565b9050610bcb60a0830186610808565b610bd860c08301856109d9565b610be560e083018461083d565b9998505050505050505050565b60006020820190508181036000830152610c0b8161090d565b9050919050565b60006020820190508181036000830152610c2b81610973565b9050919050565b6000602082019050610c4760008301846109d9565b92915050565b6000604051905081810181811067ffffffffffffffff82111715610c7457610c73610e79565b5b8060405250919050565b600067ffffffffffffffff821115610c9957610c98610e79565b5b601f19601f8301169050602081019050919050565b600081519050919050565b600082825260208201905092915050565b600081905092915050565b600082825260208201905092915050565b600081905092915050565b6000610cfc82610d7a565b9150610d0783610d7a565b92508260ff03821115610d1d57610d1c610e4a565b5b828201905092915050565b6000610d3382610d50565b9050919050565b60008115159050919050565b6000819050919050565b600073ffffffffffffffffffffffffffffffffffffffff82169050919050565b6000819050919050565b600060ff82169050919050565b82818337600083830152505050565b60005b83811015610db4578082015181840152602081019050610d99565b83811115610dc3576000848401525b50505050565b6000610dd482610d70565b91507fffffffffffffffffffffffffffffffffffffffffffffffffffffffffffffffff821415610e0757610e06610e4a565b5b600182019050919050565b6000610e1d82610e2e565b9050919050565b6000819050919050565b6000610e3982610eb9565b9050919050565b6000819050919050565b7f4e487b7100000000000000000000000000000000000000000000000000000000600052601160045260246000fd5b7f4e487b7100000000000000000000000000000000000000000000000000000000600052604160045260246000fd5b6000601f19601f8301169050919050565b60008160601b9050919050565b610ecf81610d28565b8114610eda57600080fd5b50565b610ee681610d3a565b8114610ef157600080fd5b50565b610efd81610d70565b8114610f0857600080fd5b5056fea2646970667358221220a6448321af06a3321755f8fcc93f0f0f531dae4ae80a0611f464e23acd10fe8864736f6c63430008000033",
  "linkReferences": {},
  "deployedLinkReferences": {}
}